:1000000012C024C023C022C021C020C01FC01EC0F7
:100010001DC01CC01BC01AC019C018C017C016C014
:1000200015C014C013C011241FBECFE5D4E0DEBF3D
:10003000CDBF10E0A0E6B0E0E2E2F5E002C005903E
:100040000D92AE37B107D9F703D169C2D9CF9999CB
:1000500018C081E090E0A0E0B0E099990DC0019651
:10006000A11DB11D803C27E2920729E0A207B1053E
:10007000A1F72FEF3FEF3BC0803C9742A940B1056D
:1000800089F11FBC82E08EBD1DBC1CBC999B20C0A9
:100090008CB59DB581369A4ED8F481E090E0A0E011
:1000A000B0E0999B10C02CB53DB521363A4E58F4BE
:1000B0000196A11DB11D813C27E2920729E0A2070C
:1000C000B10579F705C0803C9742A940B10569F0B8
:1000D0002CB53DB51EBC21368AEE380740F02EEF18
:1000E0003FEF05C02FEF3FEF02C02FEF3FEF822F12
:1000F000932F08959C01207F332722BB92B39E5FEC
:1001000092BBEFE9FFE03197F1F700C0000092B336
:10011000925092BB8295807F82BB82B38E5F82BBFE
:100120008FE99FE00197F1F700C0000082B3825091
:1001300082BB08959C01207F332722BB22B32D5F11
:1001400022BBEFE9FFE03197F1F700C0000022B3D6
:10015000235022BB82959295907F9827807F982785
:1001600082BB82B38D5F82BB8FE99FE00197F1F77D
:1001700000C0000082B3835082BB0895CF93DF9309
:10018000EC018881882331F0219690E0D3DF8991BA
:100190008111FBCFDF91CF9108950F931F93CF93E0
:1001A000DF93EC01009759F580E390E0C3DF84E032
:1001B00090E0A0DF20C09E01ADECBCECA4D18C018E
:1001C0001695079516950795169507959801220F90
:1001D000331FC801880F991F880F991F880F991F17
:1001E000820F931F9E01281B390BC901C096A2DF05
:1001F000E801209701F786E090E07CDF04C084E00E
:1002000090E078DFD8CFDF91CF911F910F910895C3
:1002100082E090E06FDF88E290E06CDF8CE090E0BD
:1002200069DF86E090E066DF81E090E063DF0895BB
:1002300015BA8AE18A95F1F700C081E085BB88E2B2
:100240008A95F1F715BA85E38A95F1F700000895CC
:100250008DEF84BB8FEF81BBDBDFEADFF8DEEC01E3
:10026000CF3F8FEFD80739F480E890E043DF80E696
:1002700090E084DFF2CFCE3F8FEFD80739F480E8EB
:1002800090E038DF80E690E079DFE7CF80E890E02B
:1002900031DF8EE690E072DF84E890E02BDFBE0174
:1002A00080E090E0A2D020E030E048E652E404D0C4
:1002B0006BD0CB0172DFD1CF0CD0EBC0E3D040F0DC
:1002C000DAD030F021F45F3F19F0CCC0511115C1E4
:1002D000CFC0F0D098F39923C9F35523B1F3951B00
:1002E000550BBB27AA2762177307840738F09F5F57
:1002F0005F4F220F331F441FAA1FA9F333D00E2EC6
:100300003AF0E0E830D091505040E695001CCAF732
:1003100029D0FE2F27D0660F771F881FBB1F2617F7
:1003200037074807AB07B0E809F0BB0B802DBF01CA
:10033000FF2793585F4F2AF09E3F510568F092C007
:10034000DCC05F3FECF3983EDCF3869577956795CC
:10035000B795F7959F5FC9F7880F911D969587957B
:1003600097F90895E1E0660F771F881FBB1F62179A
:1003700073078407BA0720F0621B730B840BBA0B58
:10038000EE1F88F7E095089504D06894B111B5C0C8
:10039000089598D088F09F5790F0B92F9927B751BA
:1003A000A0F0D1F0660F771F881F991F1AF0BA9539
:1003B000C9F712C0B13081F09FD0B1E008959CC060
:1003C000672F782F8827B85F39F0B93FCCF386952F
:1003D00077956795B395D9F73EF49095809570958C
:1003E00061957F4F8F4F9F4F0895E89409C097FB09
:1003F0003EF490958095709561957F4F8F4F9F4FFC
:100400009923A9F0F92F96E9BB279395F69587953F
:1004100077956795B795F111F8CFFAF4BB0F11F402
:1004200060FF1BC06F5F7F4F8F4F9F4F16C08823A9
:1004300011F096E911C0772321F09EE8872F762FDF
:1004400005C0662371F096E8862F70E060E02AF020
:100450009A95660F771F881FDAF7880F969587950C
:1004600097F9089597F99F6780E870E060E0089534
:100470009FEF80EC089500240A94161617061806BC
:100480000906089500240A94121613061406050698
:100490000895092E0394000C11F4882352F0BB0F29
:1004A00040F4BF2B11F460FF04C06F5F7F4F8F4F8C
:1004B0009F4F089557FD9058440F551F59F05F3FC7
:1004C00071F04795880F97FB991F61F09F3F79F076
:1004D00087950895121613061406551FF2CF4695F8
:1004E000F1DF08C0161617061806991FF1CF86957A
:1004F0007105610508940895E894BB27662777275E
:10050000CB0197F90895A29FB001B39FC001A39FAB
:1005100001D0B29F700D811D1124911D0895F89492
:02052000FFCF0B
:100522004572726F7220202020202020200020207F
:0E0532002020202020202020636D20200000AB
:00000001FF
